{
  "_format": "hh-sol-artifact-1",
  "contractName": "TokenBank",
  "sourceName": "contracts/TokenBank.sol",
  "abi": [
    {
      "inputs": [
        {
          "internalType": "string",
          "name": "name_",
          "type": "string"
        },
        {
          "internalType": "string",
          "name": "symbol_",
          "type": "string"
        },
        {
          "internalType": "address",
          "name": "nftContract_",
          "type": "address"
        }
      ],
      "stateMutability": "nonpayable",
      "type": "constructor"
    },
    {
      "anonymous": false,
      "inputs": [
        {
          "indexed": true,
          "internalType": "address",
          "name": "from",
          "type": "address"
        },
        {
          "indexed": false,
          "internalType": "uint256",
          "name": "amount",
          "type": "uint256"
        }
      ],
      "name": "tokenDeposit",
      "type": "event"
    },
    {
      "anonymous": false,
      "inputs": [
        {
          "indexed": true,
          "internalType": "address",
          "name": "from",
          "type": "address"
        },
        {
          "indexed": false,
          "internalType": "uint256",
          "name": "amount",
          "type": "uint256"
        }
      ],
      "name": "tokenWithdraw",
      "type": "event"
    },
    {
      "anonymous": false,
      "inputs": [
        {
          "indexed": true,
          "internalType": "address",
          "name": "from",
          "type": "address"
        },
        {
          "indexed": true,
          "internalType": "address",
          "name": "to",
          "type": "address"
        },
        {
          "indexed": false,
          "internalType": "uint256",
          "name": "amount",
          "type": "uint256"
        }
      ],
      "name": "transferToken",
      "type": "event"
    },
    {
      "inputs": [
        {
          "internalType": "address",
          "name": "account",
          "type": "address"
        }
      ],
      "name": "balanceOf",
      "outputs": [
        {
          "internalType": "uint256",
          "name": "",
          "type": "uint256"
        }
      ],
      "stateMutability": "view",
      "type": "function"
    },
    {
      "inputs": [
        {
          "internalType": "address",
          "name": "account",
          "type": "address"
        }
      ],
      "name": "bankBalanceOf",
      "outputs": [
        {
          "internalType": "uint256",
          "name": "",
          "type": "uint256"
        }
      ],
      "stateMutability": "view",
      "type": "function"
    },
    {
      "inputs": [],
      "name": "bankTokenBalances",
      "outputs": [
        {
          "internalType": "uint256",
          "name": "",
          "type": "uint256"
        }
      ],
      "stateMutability": "view",
      "type": "function"
    },
    {
      "inputs": [
        {
          "internalType": "uint256",
          "name": "amount",
          "type": "uint256"
        }
      ],
      "name": "deposit",
      "outputs": [],
      "stateMutability": "nonpayable",
      "type": "function"
    },
    {
      "inputs": [],
      "name": "getname",
      "outputs": [
        {
          "internalType": "string",
          "name": "",
          "type": "string"
        }
      ],
      "stateMutability": "view",
      "type": "function"
    },
    {
      "inputs": [],
      "name": "getsymbol",
      "outputs": [
        {
          "internalType": "string",
          "name": "",
          "type": "string"
        }
      ],
      "stateMutability": "view",
      "type": "function"
    },
    {
      "inputs": [],
      "name": "gettotalsupply",
      "outputs": [
        {
          "internalType": "uint256",
          "name": "",
          "type": "uint256"
        }
      ],
      "stateMutability": "pure",
      "type": "function"
    },
    {
      "inputs": [],
      "name": "memberNFT",
      "outputs": [
        {
          "internalType": "contract MNFT",
          "name": "",
          "type": "address"
        }
      ],
      "stateMutability": "view",
      "type": "function"
    },
    {
      "inputs": [],
      "name": "owner",
      "outputs": [
        {
          "internalType": "address",
          "name": "",
          "type": "address"
        }
      ],
      "stateMutability": "view",
      "type": "function"
    },
    {
      "inputs": [
        {
          "internalType": "address",
          "name": "to",
          "type": "address"
        },
        {
          "internalType": "uint256",
          "name": "amount",
          "type": "uint256"
        }
      ],
      "name": "transfer",
      "outputs": [],
      "stateMutability": "nonpayable",
      "type": "function"
    },
    {
      "inputs": [
        {
          "internalType": "uint256",
          "name": "amount",
          "type": "uint256"
        }
      ],
      "name": "withdraw",
      "outputs": [],
      "stateMutability": "nonpayable",
      "type": "function"
    }
  ],
  "bytecode": "0x60806040523480156200001157600080fd5b506040516200198d3803806200198d83398181016040528101906200003791906200040d565b82600190805190602001906200004f9291906200015b565b508160029080519060200190620000689291906200015b565b5033600460006101000a81548173ffffffffffffffffffffffffffffffffffffffff021916908373ffffffffffffffffffffffffffffffffffffffff1602179055506103e860056000600460009054906101000a900473ffffffffffffffffffffffffffffffffffffffff1673ffffffffffffffffffffffffffffffffffffffff1673ffffffffffffffffffffffffffffffffffffffff16815260200190815260200160002081905550806000806101000a81548173ffffffffffffffffffffffffffffffffffffffff021916908373ffffffffffffffffffffffffffffffffffffffff1602179055505050506200050c565b8280546200016990620004d6565b90600052602060002090601f0160209004810192826200018d5760008555620001d9565b82601f10620001a857805160ff1916838001178555620001d9565b82800160010185558215620001d9579182015b82811115620001d8578251825591602001919060010190620001bb565b5b509050620001e89190620001ec565b5090565b5b8082111562000207576000816000905550600101620001ed565b5090565b6000604051905090565b600080fd5b600080fd5b600080fd5b600080fd5b6000601f19601f8301169050919050565b7f4e487b7100000000000000000000000000000000000000000000000000000000600052604160045260246000fd5b620002748262000229565b810181811067ffffffffffffffff821117156200029657620002956200023a565b5b80604052505050565b6000620002ab6200020b565b9050620002b9828262000269565b919050565b600067ffffffffffffffff821115620002dc57620002db6200023a565b5b620002e78262000229565b9050602081019050919050565b60005b8381101562000314578082015181840152602081019050620002f7565b8381111562000324576000848401525b50505050565b6000620003416200033b84620002be565b6200029f565b90508281526020810184848401111562000360576200035f62000224565b5b6200036d848285620002f4565b509392505050565b600082601f8301126200038d576200038c6200021f565b5b81516200039f8482602086016200032a565b91505092915050565b600073ffffffffffffffffffffffffffffffffffffffff82169050919050565b6000620003d582620003a8565b9050919050565b620003e781620003c8565b8114620003f357600080fd5b50565b6000815190506200040781620003dc565b92915050565b60008060006060848603121562000429576200042862000215565b5b600084015167ffffffffffffffff8111156200044a57620004496200021a565b5b620004588682870162000375565b935050602084015167ffffffffffffffff8111156200047c576200047b6200021a565b5b6200048a8682870162000375565b92505060406200049d86828701620003f6565b9150509250925092565b7f4e487b7100000000000000000000000000000000000000000000000000000000600052602260045260246000fd5b60006002820490506001821680620004ef57607f821691505b60208210811415620005065762000505620004a7565b5b50919050565b611471806200051c6000396000f3fe608060405234801561001057600080fd5b50600436106100a95760003560e01c806370a082311161007157806370a08231146101545780638da5cb5b146101845780638e851a7c146101a2578063a9059cbb146101c0578063b6b55f25146101dc578063c6ea59b9146101f8576100a9565b80632e1a7d4d146100ae5780633cd7594c146100ca57806357a4db11146100e857806365513fe51461010657806366549f2f14610136575b600080fd5b6100c860048036038101906100c39190610d64565b610216565b005b6100d2610513565b6040516100df9190610e2a565b60405180910390f35b6100f06105a5565b6040516100fd9190610e5b565b60405180910390f35b610120600480360381019061011b9190610ed4565b6105af565b60405161012d9190610e5b565b60405180910390f35b61013e6105f8565b60405161014b9190610e5b565b60405180910390f35b61016e60048036038101906101699190610ed4565b610602565b60405161017b9190610e5b565b60405180910390f35b61018c61064b565b6040516101999190610f10565b60405180910390f35b6101aa610671565b6040516101b79190610f8a565b60405180910390f35b6101da60048036038101906101d59190610fa5565b610695565b005b6101f660048036038101906101f19190610d64565b61084b565b005b610200610ac7565b60405161020d9190610e2a565b60405180910390f35b600033905060008060009054906101000a900473ffffffffffffffffffffffffffffffffffffffff1673ffffffffffffffffffffffffffffffffffffffff166370a08231836040518263ffffffff1660e01b81526004016102779190610f10565b60206040518083038186803b15801561028f57600080fd5b505afa1580156102a3573d6000803e3d6000fd5b505050506040513d601f19601f820116820180604052508101906102c79190610ffa565b11610307576040517f08c379a00000000000000000000000000000000000000000000000000000000081526004016102fe90611073565b60405180910390fd5b600460009054906101000a900473ffffffffffffffffffffffffffffffffffffffff1673ffffffffffffffffffffffffffffffffffffffff163373ffffffffffffffffffffffffffffffffffffffff161415610398576040517f08c379a000000000000000000000000000000000000000000000000000000000815260040161038f906110df565b60405180910390fd5b60003390506000600460009054906101000a900473ffffffffffffffffffffffffffffffffffffffff1690506000600660008473ffffffffffffffffffffffffffffffffffffffff1673ffffffffffffffffffffffffffffffffffffffff1681526020019081526020016000205490508481101561044b576040517f08c379a000000000000000000000000000000000000000000000000000000000815260040161044290611171565b60405180910390fd5b610456828487610b59565b848161046291906111c0565b600660008573ffffffffffffffffffffffffffffffffffffffff1673ffffffffffffffffffffffffffffffffffffffff1681526020019081526020016000208190555084600360008282546104b791906111c0565b925050819055508273ffffffffffffffffffffffffffffffffffffffff167fbe50af2edcce1393cf8a694381c44acf89e5bc3ff72a4002959276c9e271a89e866040516105049190610e5b565b60405180910390a25050505050565b60606002805461052290611223565b80601f016020809104026020016040519081016040528092919081815260200182805461054e90611223565b801561059b5780601f106105705761010080835404028352916020019161059b565b820191906000526020600020905b81548152906001019060200180831161057e57829003601f168201915b5050505050905090565b60006103e8905090565b6000600660008373ffffffffffffffffffffffffffffffffffffffff1673ffffffffffffffffffffffffffffffffffffffff168152602001908152602001600020549050919050565b6000600354905090565b6000600560008373ffffffffffffffffffffffffffffffffffffffff1673ffffffffffffffffffffffffffffffffffffffff168152602001908152602001600020549050919050565b600460009054906101000a900473ffffffffffffffffffffffffffffffffffffffff1681565b60008054906101000a900473ffffffffffffffffffffffffffffffffffffffff1681565b600033905060008060009054906101000a900473ffffffffffffffffffffffffffffffffffffffff1673ffffffffffffffffffffffffffffffffffffffff166370a08231836040518263ffffffff1660e01b81526004016106f69190610f10565b60206040518083038186803b15801561070e57600080fd5b505afa158015610722573d6000803e3d6000fd5b505050506040513d601f19601f820116820180604052508101906107469190610ffa565b11610786576040517f08c379a000000000000000000000000000000000000000000000000000000000815260040161077d90611073565b60405180910390fd5b6000339050600460009054906101000a900473ffffffffffffffffffffffffffffffffffffffff1673ffffffffffffffffffffffffffffffffffffffff168173ffffffffffffffffffffffffffffffffffffffff16141561083a57826003546107ee83610602565b6107f891906111c0565b1015610839576040517f08c379a0000000000000000000000000000000000000000000000000000000008152600401610830906112a1565b60405180910390fd5b5b610845818585610b59565b50505050565b600033905060008060009054906101000a900473ffffffffffffffffffffffffffffffffffffffff1673ffffffffffffffffffffffffffffffffffffffff166370a08231836040518263ffffffff1660e01b81526004016108ac9190610f10565b60206040518083038186803b1580156108c457600080fd5b505afa1580156108d8573d6000803e3d6000fd5b505050506040513d601f19601f820116820180604052508101906108fc9190610ffa565b1161093c576040517f08c379a000000000000000000000000000000000000000000000000000000000815260040161093390611073565b60405180910390fd5b600460009054906101000a900473ffffffffffffffffffffffffffffffffffffffff1673ffffffffffffffffffffffffffffffffffffffff163373ffffffffffffffffffffffffffffffffffffffff1614156109cd576040517f08c379a00000000000000000000000000000000000000000000000000000000081526004016109c4906110df565b60405180910390fd5b60003390506000600460009054906101000a900473ffffffffffffffffffffffffffffffffffffffff169050610a04828286610b59565b8360036000828254610a1691906112c1565b9250508190555083600660008473ffffffffffffffffffffffffffffffffffffffff1673ffffffffffffffffffffffffffffffffffffffff1681526020019081526020016000206000828254610a6c91906112c1565b925050819055508173ffffffffffffffffffffffffffffffffffffffff167f443f41d5008b2fd9a192ec5cea818c3700b1dfe8324f95f6777fb4109a0e4c8585604051610ab99190610e5b565b60405180910390a250505050565b606060018054610ad690611223565b80601f0160208091040260200160405190810160405280929190818152602001828054610b0290611223565b8015610b4f5780601f10610b2457610100808354040283529160200191610b4f565b820191906000526020600020905b815481529060010190602001808311610b3257829003601f168201915b5050505050905090565b600073ffffffffffffffffffffffffffffffffffffffff168273ffffffffffffffffffffffffffffffffffffffff161415610bc9576040517f08c379a0000000000000000000000000000000000000000000000000000000008152600401610bc090611389565b60405180910390fd5b6000610bd484610602565b905081811015610c19576040517f08c379a0000000000000000000000000000000000000000000000000000000008152600401610c109061141b565b60405180910390fd5b8181610c2591906111c0565b600560008673ffffffffffffffffffffffffffffffffffffffff1673ffffffffffffffffffffffffffffffffffffffff1681526020019081526020016000208190555081600560008573ffffffffffffffffffffffffffffffffffffffff1673ffffffffffffffffffffffffffffffffffffffff1681526020019081526020016000206000828254610cb791906112c1565b925050819055508273ffffffffffffffffffffffffffffffffffffffff168473ffffffffffffffffffffffffffffffffffffffff167ff5537ede4763d97b5cf86d9eb6ae77ccd8560b8b2d4bd4503537c6b2996a7a9b84604051610d1b9190610e5b565b60405180910390a350505050565b600080fd5b6000819050919050565b610d4181610d2e565b8114610d4c57600080fd5b50565b600081359050610d5e81610d38565b92915050565b600060208284031215610d7a57610d79610d29565b5b6000610d8884828501610d4f565b91505092915050565b600081519050919050565b600082825260208201905092915050565b60005b83811015610dcb578082015181840152602081019050610db0565b83811115610dda576000848401525b50505050565b6000601f19601f8301169050919050565b6000610dfc82610d91565b610e068185610d9c565b9350610e16818560208601610dad565b610e1f81610de0565b840191505092915050565b60006020820190508181036000830152610e448184610df1565b905092915050565b610e5581610d2e565b82525050565b6000602082019050610e706000830184610e4c565b92915050565b600073ffffffffffffffffffffffffffffffffffffffff82169050919050565b6000610ea182610e76565b9050919050565b610eb181610e96565b8114610ebc57600080fd5b50565b600081359050610ece81610ea8565b92915050565b600060208284031215610eea57610ee9610d29565b5b6000610ef884828501610ebf565b91505092915050565b610f0a81610e96565b82525050565b6000602082019050610f256000830184610f01565b92915050565b6000819050919050565b6000610f50610f4b610f4684610e76565b610f2b565b610e76565b9050919050565b6000610f6282610f35565b9050919050565b6000610f7482610f57565b9050919050565b610f8481610f69565b82525050565b6000602082019050610f9f6000830184610f7b565b92915050565b60008060408385031215610fbc57610fbb610d29565b5b6000610fca85828601610ebf565b9250506020610fdb85828601610d4f565b9150509250929050565b600081519050610ff481610d38565b92915050565b6000602082840312156110105761100f610d29565b5b600061101e84828501610fe5565b91505092915050565b7f796f7520617265206e6f74206d656d6265720000000000000000000000000000600082015250565b600061105d601283610d9c565b915061106882611027565b602082019050919050565b6000602082019050818103600083015261108c81611050565b9050919050565b7f796f752063616e206e6f7420646f207468697300000000000000000000000000600082015250565b60006110c9601383610d9c565b91506110d482611093565b602082019050919050565b600060208201905081810360008301526110f8816110bc565b9050919050565b7f65786365656420616d6f756e74206f6620746f6b656e20796f75206465706f7360008201527f697420696e207468697320636f6e747261637400000000000000000000000000602082015250565b600061115b603383610d9c565b9150611166826110ff565b604082019050919050565b6000602082019050818103600083015261118a8161114e565b9050919050565b7f4e487b7100000000000000000000000000000000000000000000000000000000600052601160045260246000fd5b60006111cb82610d2e565b91506111d683610d2e565b9250828210156111e9576111e8611191565b5b828203905092915050565b7f4e487b7100000000000000000000000000000000000000000000000000000000600052602260045260246000fd5b6000600282049050600182168061123b57607f821691505b6020821081141561124f5761124e6111f4565b5b50919050565b7f677261746572207468616e20796f752068617665000000000000000000000000600082015250565b600061128b601483610d9c565b915061129682611255565b602082019050919050565b600060208201905081810360008301526112ba8161127e565b9050919050565b60006112cc82610d2e565b91506112d783610d2e565b9250827fffffffffffffffffffffffffffffffffffffffffffffffffffffffffffffffff0382111561130c5761130b611191565b5b828201905092915050565b7f6164647265737320796f752073656e7420746f6b656e206973206e6f7420657860008201527f6973740000000000000000000000000000000000000000000000000000000000602082015250565b6000611373602383610d9c565b915061137e82611317565b604082019050919050565b600060208201905081810360008301526113a281611366565b9050919050565b7f796f75207472616e7366657220746f6b656e206d6f7265207468616e20796f7560008201527f2068617665000000000000000000000000000000000000000000000000000000602082015250565b6000611405602583610d9c565b9150611410826113a9565b604082019050919050565b60006020820190508181036000830152611434816113f8565b905091905056fea26469706673582212205f2abf6cafdd2ae0c8b95e785317a914d90ff0051f4fd30ddf6c96b84d9d969864736f6c63430008090033",
  "linkReferences": {},
  "deployedLinkReferences": {}
}